{
  "contractName": "Competition",
  "abi": [
    {
      "inputs": [
        {
          "internalType": "address",
          "name": "_evaluator",
          "type": "address"
        },
        {
          "internalType": "string",
          "name": "_trainingDataUrl",
          "type": "string"
        },
        {
          "internalType": "string",
          "name": "_testEncryptedDataUrl",
          "type": "string"
        }
      ],
      "payable": true,
      "stateMutability": "payable",
      "type": "constructor"
    },
    {
      "anonymous": false,
      "inputs": [],
      "name": "EvaluateModels",
      "type": "event"
    },
    {
      "constant": true,
      "inputs": [],
      "name": "bestSubmittedModelIndex",
      "outputs": [
        {
          "internalType": "uint256",
          "name": "",
          "type": "uint256"
        }
      ],
      "payable": false,
      "stateMutability": "view",
      "type": "function"
    },
    {
      "constant": true,
      "inputs": [
        {
          "internalType": "address",
          "name": "",
          "type": "address"
        }
      ],
      "name": "commitedWeights",
      "outputs": [
        {
          "internalType": "bytes32",
          "name": "",
          "type": "bytes32"
        }
      ],
      "payable": false,
      "stateMutability": "view",
      "type": "function"
    },
    {
      "constant": true,
      "inputs": [],
      "name": "creationTime",
      "outputs": [
        {
          "internalType": "uint256",
          "name": "",
          "type": "uint256"
        }
      ],
      "payable": false,
      "stateMutability": "view",
      "type": "function"
    },
    {
      "constant": true,
      "inputs": [],
      "name": "currentStage",
      "outputs": [
        {
          "internalType": "enum Competition.Stage",
          "name": "",
          "type": "uint8"
        }
      ],
      "payable": false,
      "stateMutability": "view",
      "type": "function"
    },
    {
      "constant": true,
      "inputs": [],
      "name": "decryptionKey",
      "outputs": [
        {
          "internalType": "string",
          "name": "",
          "type": "string"
        }
      ],
      "payable": false,
      "stateMutability": "view",
      "type": "function"
    },
    {
      "constant": true,
      "inputs": [],
      "name": "evaluator",
      "outputs": [
        {
          "internalType": "address",
          "name": "",
          "type": "address"
        }
      ],
      "payable": false,
      "stateMutability": "view",
      "type": "function"
    },
    {
      "constant": true,
      "inputs": [
        {
          "internalType": "uint256",
          "name": "",
          "type": "uint256"
        }
      ],
      "name": "modelAccuracyPerIndex",
      "outputs": [
        {
          "internalType": "int256",
          "name": "",
          "type": "int256"
        }
      ],
      "payable": false,
      "stateMutability": "view",
      "type": "function"
    },
    {
      "constant": true,
      "inputs": [],
      "name": "organizer",
      "outputs": [
        {
          "internalType": "address",
          "name": "",
          "type": "address"
        }
      ],
      "payable": false,
      "stateMutability": "view",
      "type": "function"
    },
    {
      "constant": true,
      "inputs": [
        {
          "internalType": "address",
          "name": "",
          "type": "address"
        }
      ],
      "name": "participation",
      "outputs": [
        {
          "internalType": "bool",
          "name": "",
          "type": "bool"
        }
      ],
      "payable": false,
      "stateMutability": "view",
      "type": "function"
    },
    {
      "constant": true,
      "inputs": [
        {
          "internalType": "uint256",
          "name": "",
          "type": "uint256"
        }
      ],
      "name": "submittedModels",
      "outputs": [
        {
          "internalType": "address",
          "name": "participant",
          "type": "address"
        },
        {
          "internalType": "uint256",
          "name": "numberOfInputLayerNeurons",
          "type": "uint256"
        },
        {
          "internalType": "uint256",
          "name": "numberOfOutputLayerNeurons",
          "type": "uint256"
        }
      ],
      "payable": false,
      "stateMutability": "view",
      "type": "function"
    },
    {
      "constant": true,
      "inputs": [],
      "name": "testEncryptedDataUrl",
      "outputs": [
        {
          "internalType": "string",
          "name": "",
          "type": "string"
        }
      ],
      "payable": false,
      "stateMutability": "view",
      "type": "function"
    },
    {
      "constant": true,
      "inputs": [],
      "name": "trainingDataUrl",
      "outputs": [
        {
          "internalType": "string",
          "name": "",
          "type": "string"
        }
      ],
      "payable": false,
      "stateMutability": "view",
      "type": "function"
    },
    {
      "constant": false,
      "inputs": [
        {
          "internalType": "bytes32",
          "name": "commit",
          "type": "bytes32"
        }
      ],
      "name": "commitModel",
      "outputs": [],
      "payable": false,
      "stateMutability": "nonpayable",
      "type": "function"
    },
    {
      "constant": false,
      "inputs": [
        {
          "internalType": "uint256",
          "name": "numberOfInputLayerNeurons",
          "type": "uint256"
        },
        {
          "internalType": "uint256",
          "name": "numberOfOutputLayerNeurons",
          "type": "uint256"
        },
        {
          "internalType": "uint256[]",
          "name": "numberOfHiddenLayerNeurons",
          "type": "uint256[]"
        },
        {
          "internalType": "int256[]",
          "name": "weights",
          "type": "int256[]"
        },
        {
          "internalType": "int256[]",
          "name": "biases",
          "type": "int256[]"
        }
      ],
      "name": "revealModel",
      "outputs": [],
      "payable": false,
      "stateMutability": "nonpayable",
      "type": "function"
    },
    {
      "constant": false,
      "inputs": [
        {
          "internalType": "string",
          "name": "_decryptionKey",
          "type": "string"
        }
      ],
      "name": "revealDecryptionKey",
      "outputs": [],
      "payable": false,
      "stateMutability": "nonpayable",
      "type": "function"
    },
    {
      "constant": false,
      "inputs": [],
      "name": "evaluateModels",
      "outputs": [],
      "payable": false,
      "stateMutability": "nonpayable",
      "type": "function"
    },
    {
      "constant": false,
      "inputs": [
        {
          "internalType": "int256[]",
          "name": "_modelAccuracyPerIndex",
          "type": "int256[]"
        }
      ],
      "name": "evaluationCallback",
      "outputs": [],
      "payable": true,
      "stateMutability": "payable",
      "type": "function"
    },
    {
      "constant": false,
      "inputs": [],
      "name": "claimReward",
      "outputs": [],
      "payable": true,
      "stateMutability": "payable",
      "type": "function"
    },
    {
      "constant": true,
      "inputs": [],
      "name": "getSubmissionsCount",
      "outputs": [
        {
          "internalType": "uint256",
          "name": "",
          "type": "uint256"
        }
      ],
      "payable": false,
      "stateMutability": "view",
      "type": "function"
    },
    {
      "constant": true,
      "inputs": [
        {
          "internalType": "uint256",
          "name": "index",
          "type": "uint256"
        }
      ],
      "name": "getSubmittedModelByIndex",
      "outputs": [
        {
          "internalType": "address",
          "name": "",
          "type": "address"
        },
        {
          "internalType": "uint256",
          "name": "",
          "type": "uint256"
        },
        {
          "internalType": "uint256",
          "name": "",
          "type": "uint256"
        },
        {
          "internalType": "uint256[]",
          "name": "",
          "type": "uint256[]"
        },
        {
          "internalType": "int256[]",
          "name": "",
          "type": "int256[]"
        },
        {
          "internalType": "int256[]",
          "name": "",
          "type": "int256[]"
        }
      ],
      "payable": false,
      "stateMutability": "view",
      "type": "function"
    }
  ],
  "bytecode": "0x608060405260008060006101000a81548160ff021916908360058111156200002357fe5b0217905550426001556040516200232738038062002327833981810160405260608110156200005157600080fd5b8101908080519060200190929190805160405193929190846401000000008211156200007c57600080fd5b838201915060208201858111156200009357600080fd5b8251866001820283011164010000000082111715620000b157600080fd5b8083526020830192505050908051906020019080838360005b83811015620000e7578082015181840152602081019050620000ca565b50505050905090810190601f168015620001155780820380516001836020036101000a031916815260200191505b50604052602001805160405193929190846401000000008211156200013957600080fd5b838201915060208201858111156200015057600080fd5b82518660018202830111640100000000821117156200016e57600080fd5b8083526020830192505050908051906020019080838360005b83811015620001a457808201518184015260208101905062000187565b50505050905090810190601f168015620001d25780820380516001836020036101000a031916815260200191505b5060405250505033600260006101000a81548173ffffffffffffffffffffffffffffffffffffffff021916908373ffffffffffffffffffffffffffffffffffffffff16021790555082600860006101000a81548173ffffffffffffffffffffffffffffffffffffffff021916908373ffffffffffffffffffffffffffffffffffffffff16021790555081600390805190602001906200027392919062000296565b5080600490805190602001906200028c92919062000296565b5050505062000345565b828054600181600116156101000203166002900490600052602060002090601f016020900481019282601f10620002d957805160ff19168380011785556200030a565b828001600101855582156200030a579182015b8281111562000309578251825591602001919060010190620002ec565b5b5090506200031991906200031d565b5090565b6200034291905b808211156200033e57600081600090555060010162000324565b5090565b90565b611fd280620003556000396000f3fe60806040526004361061011f5760003560e01c806361203265116100a05780639cb93dd1116100645780639cb93dd114610a18578063b84366c414610a6f578063b88a802f14610a86578063d8270dce14610a90578063f08a57ff14610abb5761011f565b8063612032651461063e578063678c6c55146106955780636c53bff3146107255780638204df721461092657806396f3a8ad146109af5761011f565b806357968511116100e757806357968511146103765780635aed58ae1461043e5780635bf5d54c146104695780635e567038146104a25780635fa96d64146106035761011f565b8063015bcdd7146101245780631d8c99911461017357806323442fa31461020357806329b349e7146102bb578063360299181461034b575b600080fd5b34801561013057600080fd5b5061015d6004803603602081101561014757600080fd5b8101908080359060200190929190505050610b20565b6040518082815260200191505060405180910390f35b34801561017f57600080fd5b50610188610b41565b6040518080602001828103825283818151815260200191508051906020019080838360005b838110156101c85780820151818401526020810190506101ad565b50505050905090810190601f1680156101f55780820380516001836020036101000a031916815260200191505b509250505060405180910390f35b6102b96004803603602081101561021957600080fd5b810190808035906020019064010000000081111561023657600080fd5b82018360208201111561024857600080fd5b8035906020019184602083028401116401000000008311171561026a57600080fd5b919080806020026020016040519081016040528093929190818152602001838360200280828437600081840152601f19601f820116905080830192505050505050509192919290505050610bdf565b005b3480156102c757600080fd5b506102d0610d42565b6040518080602001828103825283818151815260200191508051906020019080838360005b838110156103105780820151818401526020810190506102f5565b50505050905090810190601f16801561033d5780820380516001836020036101000a031916815260200191505b509250505060405180910390f35b34801561035757600080fd5b50610360610de0565b6040518082815260200191505060405180910390f35b34801561038257600080fd5b5061043c6004803603602081101561039957600080fd5b81019080803590602001906401000000008111156103b657600080fd5b8201836020820111156103c857600080fd5b803590602001918460018302840111640100000000831117156103ea57600080fd5b91908080601f016020809104026020016040519081016040528093929190818152602001838380828437600081840152601f19601f820116905080830192505050505050509192919290505050610ded565b005b34801561044a57600080fd5b50610453610fbd565b6040518082815260200191505060405180910390f35b34801561047557600080fd5b5061047e610fc3565b6040518082600581111561048e57fe5b60ff16815260200191505060405180910390f35b3480156104ae57600080fd5b506104db600480360360208110156104c557600080fd5b8101908080359060200190929190505050610fd5565b604051808773ffffffffffffffffffffffffffffffffffffffff1673ffffffffffffffffffffffffffffffffffffffff168152602001868152602001858152602001806020018060200180602001848103845287818151815260200191508051906020019060200280838360005b83811015610564578082015181840152602081019050610549565b50505050905001848103835286818151815260200191508051906020019060200280838360005b838110156105a657808201518184015260208101905061058b565b50505050905001848103825285818151815260200191508051906020019060200280838360005b838110156105e85780820151818401526020810190506105cd565b50505050905001995050505050505050505060405180910390f35b34801561060f57600080fd5b5061063c6004803603602081101561062657600080fd5b81019080803590602001909291905050506111c1565b005b34801561064a57600080fd5b50610653611428565b604051808273ffffffffffffffffffffffffffffffffffffffff1673ffffffffffffffffffffffffffffffffffffffff16815260200191505060405180910390f35b3480156106a157600080fd5b506106aa61144e565b6040518080602001828103825283818151815260200191508051906020019080838360005b838110156106ea5780820151818401526020810190506106cf565b50505050905090810190601f1680156107175780820380516001836020036101000a031916815260200191505b509250505060405180910390f35b34801561073157600080fd5b50610924600480360360a081101561074857600080fd5b8101908080359060200190929190803590602001909291908035906020019064010000000081111561077957600080fd5b82018360208201111561078b57600080fd5b803590602001918460208302840111640100000000831117156107ad57600080fd5b919080806020026020016040519081016040528093929190818152602001838360200280828437600081840152601f19601f8201169050808301925050505050505091929192908035906020019064010000000081111561080d57600080fd5b82018360208201111561081f57600080fd5b8035906020019184602083028401116401000000008311171561084157600080fd5b919080806020026020016040519081016040528093929190818152602001838360200280828437600081840152601f19601f820116905080830192505050505050509192919290803590602001906401000000008111156108a157600080fd5b8201836020820111156108b357600080fd5b803590602001918460208302840111640100000000831117156108d557600080fd5b919080806020026020016040519081016040528093929190818152602001838360200280828437600081840152601f19601f8201169050808301925050505050505091929192905050506114ec565b005b34801561093257600080fd5b5061095f6004803603602081101561094957600080fd5b81019080803590602001909291905050506118c9565b604051808473ffffffffffffffffffffffffffffffffffffffff1673ffffffffffffffffffffffffffffffffffffffff168152602001838152602001828152602001935050505060405180910390f35b3480156109bb57600080fd5b506109fe600480360360208110156109d257600080fd5b81019080803573ffffffffffffffffffffffffffffffffffffffff169060200190929190505050611920565b604051808215151515815260200191505060405180910390f35b348015610a2457600080fd5b50610a2d611940565b604051808273ffffffffffffffffffffffffffffffffffffffff1673ffffffffffffffffffffffffffffffffffffffff16815260200191505060405180910390f35b348015610a7b57600080fd5b50610a84611966565b005b610a8e6119cf565b005b348015610a9c57600080fd5b50610aa5611c82565b6040518082815260200191505060405180910390f35b348015610ac757600080fd5b50610b0a60048036036020811015610ade57600080fd5b81019080803573ffffffffffffffffffffffffffffffffffffffff169060200190929190505050611c88565b6040518082815260200191505060405180910390f35b600a8181548110610b2d57fe5b906000526020600020016000915090505481565b60098054600181600116156101000203166002900480601f016020809104026020016040519081016040528092919081815260200182805460018160011615610100020316600290048015610bd75780601f10610bac57610100808354040283529160200191610bd7565b820191906000526020600020905b815481529060010190602001808311610bba57829003601f168201915b505050505081565b6004806005811115610bed57fe5b6000809054906101000a900460ff166005811115610c0757fe5b14610c1157600080fd5b600860009054906101000a900473ffffffffffffffffffffffffffffffffffffffff1673ffffffffffffffffffffffffffffffffffffffff163373ffffffffffffffffffffffffffffffffffffffff1614610cb7576040517f08c379a0000000000000000000000000000000000000000000000000000000008152600401808060200182810382526030815260200180611f486030913960400191505060405180910390fd5b81600a9080519060200190610ccd929190611ceb565b50600080905060008090505b600a80549050811015610d2d57600a8281548110610cf357fe5b9060005260206000200154600a8281548110610d0b57fe5b90600052602060002001541315610d20578091505b8080600101915050610cd9565b5080600b8190555050610d3e611ca0565b5050565b60048054600181600116156101000203166002900480601f016020809104026020016040519081016040528092919081815260200182805460018160011615610100020316600290048015610dd85780601f10610dad57610100808354040283529160200191610dd8565b820191906000526020600020905b815481529060010190602001808311610dbb57829003601f168201915b505050505081565b6000600780549050905090565b60006005811115610dfa57fe5b6000809054906101000a900460ff166005811115610e1457fe5b148015610e265750603c600154014210155b15610e3457610e33611ca0565b5b60016005811115610e4157fe5b6000809054906101000a900460ff166005811115610e5b57fe5b148015610e6d57506078600154014210155b15610e7b57610e7a611ca0565b5b60026005811115610e8857fe5b6000809054906101000a900460ff166005811115610ea257fe5b148015610eb4575060b4600154014210155b15610ec257610ec1611ca0565b5b6002806005811115610ed057fe5b6000809054906101000a900460ff166005811115610eea57fe5b14610ef457600080fd5b600260009054906101000a900473ffffffffffffffffffffffffffffffffffffffff1673ffffffffffffffffffffffffffffffffffffffff163373ffffffffffffffffffffffffffffffffffffffff1614610f9a576040517f08c379a0000000000000000000000000000000000000000000000000000000008152600401808060200182810382526026815260200180611f786026913960400191505060405180910390fd5b8160099080519060200190610fb0929190611d38565b50610fb9611ca0565b5050565b600b5481565b6000809054906101000a900460ff1681565b6000806000606080606060078781548110610fec57fe5b906000526020600020906006020160000160009054906101000a900473ffffffffffffffffffffffffffffffffffffffff166007888154811061102b57fe5b9060005260206000209060060201600101546007898154811061104a57fe5b90600052602060002090600602016002015460078a8154811061106957fe5b906000526020600020906006020160030160078b8154811061108757fe5b906000526020600020906006020160040160078c815481106110a557fe5b90600052602060002090600602016005018280548060200260200160405190810160405280929190818152602001828054801561110157602002820191906000526020600020905b8154815260200190600101908083116110ed575b505050505092508180548060200260200160405190810160405280929190818152602001828054801561115357602002820191906000526020600020905b81548152602001906001019080831161113f575b50505050509150808054806020026020016040519081016040528092919081815260200182805480156111a557602002820191906000526020600020905b815481526020019060010190808311611191575b5050505050905095509550955095509550955091939550919395565b600060058111156111ce57fe5b6000809054906101000a900460ff1660058111156111e857fe5b1480156111fa5750603c600154014210155b1561120857611207611ca0565b5b6001600581111561121557fe5b6000809054906101000a900460ff16600581111561122f57fe5b14801561124157506078600154014210155b1561124f5761124e611ca0565b5b6002600581111561125c57fe5b6000809054906101000a900460ff16600581111561127657fe5b148015611288575060b4600154014210155b1561129657611295611ca0565b5b60008060058111156112a457fe5b6000809054906101000a900460ff1660058111156112be57fe5b146112c857600080fd5b600560003373ffffffffffffffffffffffffffffffffffffffff1673ffffffffffffffffffffffffffffffffffffffff16815260200190815260200160002060009054906101000a900460ff1615611388576040517f08c379a00000000000000000000000000000000000000000000000000000000081526004018080602001828103825260188152602001807f53656e64657220616c726561647920636f6d6d697465642e000000000000000081525060200191505060405180910390fd5b6001600560003373ffffffffffffffffffffffffffffffffffffffff1673ffffffffffffffffffffffffffffffffffffffff16815260200190815260200160002060006101000a81548160ff02191690831515021790555081600660003373ffffffffffffffffffffffffffffffffffffffff1673ffffffffffffffffffffffffffffffffffffffff168152602001908152602001600020819055505050565b600260009054906101000a900473ffffffffffffffffffffffffffffffffffffffff1681565b60038054600181600116156101000203166002900480601f0160208091040260200160405190810160405280929190818152602001828054600181600116156101000203166002900480156114e45780601f106114b9576101008083540402835291602001916114e4565b820191906000526020600020905b8154815290600101906020018083116114c757829003601f168201915b505050505081565b600060058111156114f957fe5b6000809054906101000a900460ff16600581111561151357fe5b1480156115255750603c600154014210155b1561153357611532611ca0565b5b6001600581111561154057fe5b6000809054906101000a900460ff16600581111561155a57fe5b14801561156c57506078600154014210155b1561157a57611579611ca0565b5b6002600581111561158757fe5b6000809054906101000a900460ff1660058111156115a157fe5b1480156115b3575060b4600154014210155b156115c1576115c0611ca0565b5b60018060058111156115cf57fe5b6000809054906101000a900460ff1660058111156115e957fe5b146115f357600080fd5b600560003373ffffffffffffffffffffffffffffffffffffffff1673ffffffffffffffffffffffffffffffffffffffff16815260200190815260200160002060009054906101000a900460ff166116b2576040517f08c379a000000000000000000000000000000000000000000000000000000000815260040180806020018281038252601c8152602001807f53656e646572206469646e277420636f6d6d6974206265666f72652e0000000081525060200191505060405180910390fd5b600660003373ffffffffffffffffffffffffffffffffffffffff1673ffffffffffffffffffffffffffffffffffffffff168152602001908152602001600020548360405160200180828051906020019060200280838360005b8381101561172657808201518184015260208101905061170b565b50505050905001915050604051602081830303815290604052805190602001201461179c576040517f08c379a0000000000000000000000000000000000000000000000000000000008152600401808060200182810382526039815260200180611f0f6039913960400191505060405180910390fd5b60076040518060c001604052803373ffffffffffffffffffffffffffffffffffffffff168152602001888152602001878152602001868152602001858152602001848152509080600181540180825580915050906001820390600052602060002090600602016000909192909190915060008201518160000160006101000a81548173ffffffffffffffffffffffffffffffffffffffff021916908373ffffffffffffffffffffffffffffffffffffffff16021790555060208201518160010155604082015181600201556060820151816003019080519060200190611883929190611db8565b5060808201518160040190805190602001906118a0929190611e05565b5060a08201518160050190805190602001906118bd929190611e05565b50505050505050505050565b600781815481106118d657fe5b90600052602060002090600602016000915090508060000160009054906101000a900473ffffffffffffffffffffffffffffffffffffffff16908060010154908060020154905083565b60056020528060005260406000206000915054906101000a900460ff1681565b600860009054906101000a900473ffffffffffffffffffffffffffffffffffffffff1681565b600380600581111561197457fe5b6000809054906101000a900460ff16600581111561198e57fe5b1461199857600080fd5b7f2a03b3162a0775965229067303e5b84c7c7e16408dae9b2e1811f2fa64b4966e60405160405180910390a16119cc611ca0565b50565b60058060058111156119dd57fe5b6000809054906101000a900460ff1660058111156119f757fe5b14611a0157600080fd5b611a09611e52565b6007600b5481548110611a1857fe5b90600052602060002090600602016040518060c00160405290816000820160009054906101000a900473ffffffffffffffffffffffffffffffffffffffff1673ffffffffffffffffffffffffffffffffffffffff1673ffffffffffffffffffffffffffffffffffffffff168152602001600182015481526020016002820154815260200160038201805480602002602001604051908101604052809291908181526020018280548015611aea57602002820191906000526020600020905b815481526020019060010190808311611ad6575b5050505050815260200160048201805480602002602001604051908101604052809291908181526020018280548015611b4257602002820191906000526020600020905b815481526020019060010190808311611b2e575b5050505050815260200160058201805480602002602001604051908101604052809291908181526020018280548015611b9a57602002820191906000526020600020905b815481526020019060010190808311611b86575b5050505050815250509050806000015173ffffffffffffffffffffffffffffffffffffffff163373ffffffffffffffffffffffffffffffffffffffff1614611c2d576040517f08c379a0000000000000000000000000000000000000000000000000000000008152600401808060200182810382526026815260200180611ee96026913960400191505060405180910390fd5b6000816000015190508073ffffffffffffffffffffffffffffffffffffffff166108fc479081150290604051600060405180830381858888f19350505050158015611c7c573d6000803e3d6000fd5b50505050565b60015481565b60066020528060005260406000206000915090505481565b60016000809054906101000a900460ff166005811115611cbc57fe5b016005811115611cc857fe5b6000806101000a81548160ff02191690836005811115611ce457fe5b0217905550565b828054828255906000526020600020908101928215611d27579160200282015b82811115611d26578251825591602001919060010190611d0b565b5b509050611d349190611e9e565b5090565b828054600181600116156101000203166002900490600052602060002090601f016020900481019282601f10611d7957805160ff1916838001178555611da7565b82800160010185558215611da7579182015b82811115611da6578251825591602001919060010190611d8b565b5b509050611db49190611ec3565b5090565b828054828255906000526020600020908101928215611df4579160200282015b82811115611df3578251825591602001919060010190611dd8565b5b509050611e019190611ec3565b5090565b828054828255906000526020600020908101928215611e41579160200282015b82811115611e40578251825591602001919060010190611e25565b5b509050611e4e9190611e9e565b5090565b6040518060c00160405280600073ffffffffffffffffffffffffffffffffffffffff16815260200160008152602001600081526020016060815260200160608152602001606081525090565b611ec091905b80821115611ebc576000816000905550600101611ea4565b5090565b90565b611ee591905b80821115611ee1576000816000905550600101611ec9565b5090565b9056fe4f6e6c79207468652077696e6e65722063616e20636c61696d2074686973207265776172642e54686520636f6d6d6974656420776569676874732061726520646966666572656e742066726f6d207468652072657665616c6564206f6e6573546869732063616c6c6261636b206973206578656375746564206f6e6c7920627920746865206576616c7561746f722e4f6e6c7920746865206f7267616e697a65722063616e2072657665616c20746865206b65792ea265627a7a72315820c3a10b4250d21efb0ed9fae81f8a460e7dc4dd782136a560f5a7fe82bc1d023764736f6c63430005100032",
  "source": "// SPDX-License-Identifier: MIT\r\npragma solidity >=0.5.0 <0.9.0;\r\n\r\ncontract Competition {\r\n    enum Stage {\r\n        AcceptingCommits,\r\n        AcceptingReveals,\r\n        RevealingDecryptionKey,\r\n        Evaluating,\r\n        DeterminingWinner,\r\n        Finished\r\n    }\r\n\r\n    Stage public currentStage = Stage.AcceptingCommits;\r\n    uint256 public creationTime = block.timestamp;\r\n\r\n    modifier atStage(Stage _stage) {\r\n        require(currentStage == _stage);\r\n        _;\r\n    }\r\n\r\n    modifier transitionAfter() {\r\n        _;\r\n        nextStage();\r\n    }\r\n\r\n    modifier timedTransitions() {\r\n        if (\r\n            currentStage == Stage.AcceptingCommits &&\r\n            block.timestamp >= creationTime + 1 minutes\r\n        ) {\r\n            nextStage();\r\n        }\r\n\r\n        if (\r\n            currentStage == Stage.AcceptingReveals &&\r\n            block.timestamp >= creationTime + 2 minutes\r\n        ) {\r\n            nextStage();\r\n        }\r\n\r\n        if (\r\n            currentStage == Stage.RevealingDecryptionKey &&\r\n            block.timestamp >= creationTime + 3 minutes\r\n        ) {\r\n            nextStage();\r\n        }\r\n        _;\r\n    }\r\n\r\n    function nextStage() internal {\r\n        currentStage = Stage(uint256(currentStage) + 1);\r\n    }\r\n\r\n    event EvaluateModels();\r\n\r\n    struct Model {\r\n        address participant;\r\n        uint256 numberOfInputLayerNeurons; // e.g. 5\r\n        uint256 numberOfOutputLayerNeurons; // e.g. 1\r\n        uint256[] numberOfHiddenLayerNeurons; // e.g. [5, 3] - 5 for the first hidden layer and 3 for the second\r\n        int256[] weights;\r\n        int256[] biases;\r\n    }\r\n\r\n    address public organizer;\r\n    string public trainingDataUrl;\r\n    string public testEncryptedDataUrl;\r\n\r\n    mapping(address => bool) public participation;\r\n    mapping(address => bytes32) public commitedWeights;\r\n    Model[] public submittedModels;\r\n\r\n    address public evaluator;\r\n    string public decryptionKey;\r\n    int256[] public modelAccuracyPerIndex;\r\n    uint256 public bestSubmittedModelIndex;\r\n\r\n    constructor(\r\n        address _evaluator,\r\n        string memory _trainingDataUrl,\r\n        string memory _testEncryptedDataUrl\r\n    ) public payable {\r\n        organizer = msg.sender;\r\n        evaluator = _evaluator;\r\n        trainingDataUrl = _trainingDataUrl;\r\n        testEncryptedDataUrl = _testEncryptedDataUrl;\r\n    }\r\n\r\n    function commitModel(bytes32 commit)\r\n        public\r\n        timedTransitions\r\n        atStage(Stage.AcceptingCommits)\r\n    {\r\n        require(!participation[msg.sender], \"Sender already commited.\");\r\n\r\n        participation[msg.sender] = true;\r\n        commitedWeights[msg.sender] = commit;\r\n    }\r\n\r\n    function revealModel(\r\n        uint256 numberOfInputLayerNeurons,\r\n        uint256 numberOfOutputLayerNeurons,\r\n        uint256[] memory numberOfHiddenLayerNeurons,\r\n        int256[] memory weights,\r\n        int256[] memory biases\r\n    ) public timedTransitions atStage(Stage.AcceptingReveals) {\r\n        require(participation[msg.sender], \"Sender didn't commit before.\");\r\n        require(\r\n            keccak256(abi.encodePacked(weights)) == commitedWeights[msg.sender],\r\n            \"The commited weights are different from the revealed ones\"\r\n        );\r\n\r\n        submittedModels.push(\r\n            Model(\r\n                msg.sender,\r\n                numberOfInputLayerNeurons,\r\n                numberOfOutputLayerNeurons,\r\n                numberOfHiddenLayerNeurons,\r\n                weights,\r\n                biases\r\n            )\r\n        );\r\n    }\r\n\r\n    function revealDecryptionKey(string memory _decryptionKey)\r\n        public\r\n        timedTransitions\r\n        atStage(Stage.RevealingDecryptionKey)\r\n        transitionAfter\r\n    {\r\n        require(\r\n            msg.sender == organizer,\r\n            \"Only the organizer can reveal the key.\"\r\n        );\r\n        decryptionKey = _decryptionKey;\r\n    }\r\n\r\n    function evaluateModels() public atStage(Stage.Evaluating) transitionAfter {\r\n        emit EvaluateModels(); // TODO This can be an oracle call using a quorum of oracle nodes\r\n    }\r\n\r\n    function evaluationCallback(int256[] memory _modelAccuracyPerIndex)\r\n        public\r\n        payable\r\n        atStage(Stage.DeterminingWinner)\r\n        transitionAfter\r\n    {\r\n        require(\r\n            msg.sender == evaluator,\r\n            \"This callback is executed only by the evaluator.\"\r\n        );\r\n\r\n        modelAccuracyPerIndex = _modelAccuracyPerIndex;\r\n\r\n        uint256 winner_index = 0;\r\n        for (\r\n            uint256 index = 0;\r\n            index < modelAccuracyPerIndex.length;\r\n            index++\r\n        ) {\r\n            if (\r\n                modelAccuracyPerIndex[index] >\r\n                modelAccuracyPerIndex[winner_index]\r\n            ) {\r\n                winner_index = index;\r\n            }\r\n        }\r\n\r\n        bestSubmittedModelIndex = winner_index;\r\n    }\r\n\r\n    function claimReward() public payable atStage(Stage.Finished) {\r\n        Model memory bestModel = submittedModels[bestSubmittedModelIndex];\r\n        require(\r\n            msg.sender == bestModel.participant,\r\n            \"Only the winner can claim this reward.\"\r\n        );\r\n\r\n        address payable winner = address(uint160(bestModel.participant)); // or payable(..) for >= 0.6.0\r\n        winner.transfer(address(this).balance);\r\n    }\r\n\r\n    function getSubmissionsCount() public view returns (uint256) {\r\n        return submittedModels.length;\r\n    }\r\n\r\n    function getSubmittedModelByIndex(uint256 index)\r\n        public\r\n        view\r\n        returns (\r\n            address,\r\n            uint256,\r\n            uint256,\r\n            uint256[] memory,\r\n            int256[] memory,\r\n            int256[] memory\r\n        )\r\n    {\r\n        return (\r\n            submittedModels[index].participant,\r\n            submittedModels[index].numberOfInputLayerNeurons,\r\n            submittedModels[index].numberOfOutputLayerNeurons,\r\n            submittedModels[index].numberOfHiddenLayerNeurons,\r\n            submittedModels[index].weights,\r\n            submittedModels[index].biases\r\n        );\r\n    }\r\n}\r\n",
  "sourcePath": "D:/UDMLC/blockchain/contracts/Competition.sol",
  "compiler": {
    "name": "solc",
    "version": "0.5.16+commit.9c3226ce.Emscripten.clang"
  },
  "schemaVersion": "3.4.1",
  "updatedAt": "2021-06-16T13:27:48.306Z",
  "networkType": "ethereum",
  "devdoc": {
    "methods": {}
  },
  "userdoc": {
    "methods": {}
  }
}